:020000040800F2
:1000000008170020E14400080D1300080F13000832
:100010001113000813130008151300080000000056
:10002000000000000000000000000000171300089E
:1000300019130008000000001B1300081D1300081E
:1000400035450008394500083D4500084145000890
:1000500045450008494500084D4500085145000840
:1000600055450008594500085D450008251300085E
:100070006145000865450008694500086D450008B0
:10008000714500087545000879450008000000002A
:100090000000000000000000000000007D45000896
:1000A0008145000885450008894500088D45000800
:1000B0002F1300085F1300089145000895450008BC
:1000C000994500089D450008A1450008A545000880
:1000D000A9450008AD4500088F130008B145000888
:1000E0001914000825140008B54500080000000098
:1000F0000000000000000000000000000000000000
:1001000000000000000000000000000000000000EF
:100110000000000000000000B9450008BD450008CF
:100120002DE9F84F002202230024DFF88C59AE7825
:10013000EF7857EA062630002E796F7957EA0626BF
:10014000310080B241F22C16B0420FDA80B241F297
:100150008406B0420ADB80B289B20E1841F22D1734
:10016000BE4203DA012632000126340080B241F299
:100170008406B0420FDB80B241F22C16B0420ADA9C
:1001800080B289B20E1841F22C17BE4203DA012662
:1001900032000226340089B2002901D10026320043
:1001A000D2B2002A34D180B241F22C16B04206DA23
:1001B00080B241F28406B04201DB0326330080B2F4
:1001C00041F28406B04206DB80B241F22C16B04206
:1001D00001DA0326330089B2002901D10326330056
:1001E000DBB2022B0AD16E7856F08006DFF8CC78AD
:1001F0007E700226DFF8C478BE7009E06E7856F093
:100200008006DFF8B8787E700326DFF8B078BE701D
:10021000DFF8A8687678002E72D1DFF89CE89EF8A7
:1002200002C09EF803A05AEA0C2CE046E4B2012C6E
:1002300004D141F2840CB8EB0C0803E041F2840CC9
:10024000B8EB0C089EF804C09EF805A05AEA0C2AE8
:10025000ADF802A05FF0000CE146BDF802C01FFA45
:1002600089F9E14521D2DFF858C81FFA88F81FFA4A
:1002700089F919EB080A5CF82AC066461FFA89F961
:100280001EEB490C9CF807A08DF801A01FFA89F914
:100290001EEB490C9CF808C0674637709DF801C0FA
:1002A00086F801C019F10109D7E7DFF80CA8DFF8DB
:1002B00014C8DCF800C09CF800C08AF801C080B205
:1002C0005FEA102C8AF802C08AF80300BDF802C069
:1002D000DFF8F0B7DBF800B09BF806B09CFBFBFB47
:1002E0008DF800B05FF0000C8AF804C09DF800C0E3
:1002F0008AF805C05FF0080CDFF8CCB7ABF800C097
:10030000BDE8F18FF0B400210022DFF8AC379C7813
:10031000DD7855EA0424200080B241F22C14A0427A
:1003200008DA80B241F28404A04203DB01242100F8
:100330000124220080B241F28404A04208DB80B292
:1003400041F22C14A04203DA0124210002242200ED
:10035000C9B2002909D15C7854F08004DFF85C57F9
:100360006C700224DFF85457AC70DFF850476478A3
:10037000002C20D1DFF84057D2B2012A09D1DFF892
:10038000406780B216EB8006DFF84077BE59340034
:1003900008E0DFF82C6780B216EB8006DFF82C77D8
:1003A000BE5934002E796F7957EA06262680082632
:1003B000DFF814773E80F0BC70472DE9F84F00233A
:1003C00000240025DFF8F066B77896F803C05CEAF1
:1003D0000727390041F27927B94206DAB1F5805F83
:1003E00003DB01273B0001273C00B1F5815F07DB00
:1003F00041F28407B94203DA01273B0002273C009F
:1004000041F28407B94207DB41F22C17B94203DA03
:1004100001273B0003273C00DBB2002B0BD1777890
:1004200057F08007DFF894C68CF801700227DFF8D8
:100430008CC68CF80270377996F805C05CEA0727FD
:100440003A00DBB2012B32D1E4B2012C07D192B2D7
:100450008F1841F27A2C674501DB01273D00E4B299
:10046000022C07D192B28F1841F2850C674501DB4F
:1004700001273D00E4B2032C07D192B28F1841F25C
:100480002D1C674501DB01273D0092B2002A02D0F6
:10049000EDB2012D0BD1777857F08007DFF81CC63D
:1004A0008CF801700327DFF814C68CF80270DFF8AF
:1004B0000C767F78002F40F0E480DFF8FC9599F807
:1004C00004C099F805A05AEA0C2AADF800A0DFF89C
:1004D000E8C5DFF8F0A5DAF800A09AF800A08CF8DB
:1004E00001A0DFF8E0A5DAF800A09AF806A0BDF8B0
:1004F00000B00BFB0AFA8CF802A05FF0000A50462D
:10050000BDF800A080B2504580F0B38080B210EBFF
:10051000010ABAF5805F12DB80B210EB010ABAF56E
:10052000815F0CDADFF8A8A580B210EB010B1AEBA3
:100530008B0ABAF5804ADAF800A0574683E080B209
:1005400010EB010ABAF5815F13DB80B210EB010AF0
:1005500041F2840BDA450CDADFF878A580B210EBB3
:10056000010B1AEB8B0ABAF5814ADAF800A057465C
:1005700069E080B210EB010ABAF5815F13DB80B24B
:1005800010EB010A41F2840BDA450CDADFF844A5DE
:1005900080B210EB010B1AEB8B0ABAF5814ADAF83C
:1005A00000A057464FE080B210EB010A41F2840BE5
:1005B000DA4513DB80B210EB010A41F22C1BDA455D
:1005C0000CDADFF8FCA480B210EB010B1AEB8B0AFB
:1005D000DFF8F8B45BF80AA0574634E080B210EBBD
:1005E000010A41F2840BDA4513DB80B210EB010AF9
:1005F00041F22C1BDA450CDADFF8C4A480B210EB10
:10060000010B1AEB8B0ADFF8C4B45BF80AA057465B
:1006100019E080B210EB010A41F22C1BDA4512DB23
:1006200080B210EB010A41F2792BDA450BDADFF8E0
:10063000A8A480B210EB010B1AEB4B0ADFF89CB4B4
:100640001BEB0A0A5746B7F800A01FFA8AFA5FEABE
:100650001A2AD646B7F800A0D04680B21CEB400A52
:100660008AF803E080B21CEB400A8AF80480401C40
:1006700046E79CF802C01CF1050CDFF84CA4AAF870
:1006800000C0BDE8F18F38B50FF25122DFF85004F9
:100690000178012000F038FADFF84804006840686B
:1006A0000400DFF844040078012805D0DFF838049E
:1006B0000078002840F0D280DFF83004808DC0F34D
:1006C000002080B2002818D0DFF8240400884FF4FE
:1006D000807190FBF1F202FB1102DFF8140402803A
:1006E000DFF8D403DFF8081409880C54DFF800049D
:1006F0000088401CDFF8F8130880DFF8F003808DD5
:10070000C0F3002080B200286ED1FF20E4B2302C6C
:1007100005DBE4B23A2C02DAB4F130010800E4B2AD
:10072000412C05DBE4B2472C02DAB4F137010800B2
:10073000E4B23A2C01D13A210800E4B23A2C02D0BA
:10074000C0B2FF2803D10021DFF8A8231180C0B276
:10075000FF2800F08380DFF89C1309884A1CDFF82B
:1007600094331A8089B200290ED1E4B23A2C0AD10E
:10077000DFF880130988491CDFF8782311800021F5
:10078000DFF86C23118069E0DFF8681309884A1EDE
:10079000022392FBF3F101FB1321C9B201291CD101
:1007A000DFF81423DFF848331B889A5C0243DFF834
:1007B0000833DFF83C532D88EA54DFF834231288DD
:1007C000521CDFF82C331A80BB4ADFF824331B8815
:1007D0009A1812F8012C140006E00201B64BDFF85B
:1007E00010532D88EA5439E0DFF804030088401ED6
:1007F000002802D0012816D030E0AF4800782A281F
:1008000010D0AD480078B949098D80B2884203D034
:100810000520B549087005E00120B3490870B648C5
:10082000A84908601AE0E4B2192C07DAA548006864
:10083000E4B210EB0410007B002807D154F08000D4
:100840009E49487001209D49887006E09D480068D7
:10085000E4B210EB04109B490860FFE731BD70471C
:1008600080B5A148007804282AD1A148008896497B
:100870000988884214D090489D490988085C9949A4
:10088000096848609A480088401C994908800FF21E
:100890004D0293480178012000F036F9012010E064
:1008A0009348008888490988884209D10FF22D02AF
:1008B0008B480178012000F027F905208A4908704B
:1008C000002002BD80B500F069F98C48006830F462
:1008D00080408A49086001BD000000002DE9F04712
:1008E000002681480078012804D07F480078052838
:1008F00040F0E0807C480078401E04D0C01E0128F3
:1009000040F2D580D6E07948808DC0F3002080B2D7
:1009100000281FD076480088811E674800F07EF9C5
:100920008046C8F3072081465FFA88F08246624815
:100930006F490988081810F8010C81451FD15E48DD
:100940006B490988081810F8020C824517D101205C
:10095000060014E00020002211000A00D2B2644B0D
:100960001B8892B29A4205D2534AC9B28A5C1018C7
:10097000491CF2E7C0B2002801D101221600F6B2EC
:10098000012E40F08E800220574908704B48407875
:10099000002803D14B48006880688047474840786A
:1009A00000280FD0454800221100C9B2052906DAF7
:1009B000C9B20A5C404BC9B2CA54491CF5E70522CA
:1009C000414B1A804948008D3B4908704748808D4B
:1009D000C0F3002080B2002815D03B480088811E5B
:1009E000354800F01BF90700BFB2380A3249364AD1
:1009F0001288511801F8010C2F483349098808184A
:100A000000F8027C1FE030480088401E2E49088014
:100A10000020040000200500EDB22B480088401E95
:100A2000854205DA2448EDB2285C04196D1CF3E711
:100A3000E043441C204824490988081800F8014C68
:100A400000202C49088003202749087000202849ED
:100A5000088004202449087001220221284800F05F
:100A600060FA2248808DC0F3002080B2002808D0B0
:100A70001C480068C06850F080001A490968C860C6
:100A800008E03A201749096848601A480088401C65
:100A9000184908801B4A12480178012000F034F8F8
:100AA00004E0052010490870FFF70CFF02E0FFF793
:100AB00009FFFFE7BDE8F087E8040020DC0E002016
:100AC00000000020F00E0020FA0E0020F0BDFFFF15
:100AD00030040020A0020020903E0008A8DDFFFFA7
:100AE000010F0020E4090020020F0020E80500208B
:100AF000F80E0020FC0E00202C410008EC0E002017
:100B000000080140DD08000810B40123214C2370C7
:100B1000214BC0B243F830101F4BC0B213EBC003DF
:100B20005A6010BC704738B5002500F085FB0120E5
:100B30001849087017480078012829D100200400BE
:100B4000E4B20A2C1EDA1448E4B250F8340000284B
:100B500016D0012005001048E4B250F83400401EC1
:100B60000D49E4B241F834000B48E4B250F83400C7
:100B7000002805D10848E4B210EBC4004068804763
:100B8000641CDDE7EDB2002D02D1002001490870A0
:100B900031BD0000000F00204C09002080B504206A
:100BA0001C4908701C48408DB0F5966F12D0B0F506
:100BB000166F13D0B0F5965F14D0B0F5165F15D050
:100BC000B0F5964F16D0B0F5164F17D0B0F5614F6F
:100BD00018D01AE020200F49087016E010200D49A7
:100BE000087012E008200B4908700EE00420094943
:100BF00008700AE003200749087006E00420054950
:100C0000087002E001200349087000F027FB00F0A3
:100C10005BFB01BD010F0020E8050020F0B40300DC
:100C20004AF201044FF6FF704FF480770A00B2FBDE
:100C3000F7F101FB1721002916D000221500EDB2B3
:100C40008D4211D2EDB2EA5C504000221600F6B29D
:100C5000082E07DAC20702D54008604000E04008CD
:100C6000761CF4E76D1CEAE7F0BC70472DE9F84309
:100C700000220026D1F800C03CFA02FCBCF1000FB3
:100C800000F04D815FF0010C1CFA02FC6346D1F8C4
:100C900000C013EA0C0C64469C4240F03E81D1F83F
:100CA00004C0BCF1000F3DD0BCF1010F24D0BCF159
:100CB000020F2BD0BCF1030F4CD0BCF1110F1FD091
:100CC000BCF1120F28D0DFF89082C4452AD0DFF89B
:100CD0008C82C44526D0DFF88882C44522D0DFF854
:100CE0008482C4451ED0DFF88082C4451AD0DFF864
:100CF0007C82C44516D031E0D1F80CC066462DE0A8
:100D0000D1F80CC01CF1040C664627E0D1F80CC0E9
:100D10001CF1080C664621E0D1F80CC01CF10C0C4B
:100D200066461BE0D1F808C0BCF1000F03D15FF0AC
:100D3000040C66460DE0D1F808C0BCF1010F04D1E7
:100D40005FF0080C6646036103E05FF0080C66463E
:100D5000436103E05FF0000C6646FFE7FF2C01D81B
:100D6000070000E0071DFF2C02D85FEA820E03E0B7
:100D7000B2F1080C5FEA8C0ED7F800C05FF00F08E4
:100D800018FA0EF83CEA080C16FA0EF858EA0C0CA1
:100D9000C7F800C0D1F804C05FEACC0C40F1BD80B8
:100DA000DFF8CCC1DCF800C05CF0010CDFF8C081DA
:100DB000C8F800C0DFF8B8C1DCF800C01CF00108BA
:100DC000CDF80080DDF800C0DFF8A8815FEA920965
:100DD00058F8298045465FF00F0812F003095FFAC2
:100DE00089F95FEA890918FA09F835EA0805DFF890
:100DF0008881404502D15FF0000C16E0DFF87CC12D
:100E0000604502D15FF0010C0FE0DFF874C160456E
:100E100002D15FF0020C08E0DFF868C1604502D142
:100E20005FF0030C01E05FF0040C12F003085FFABE
:100E300088F85FEA88081CFA08FC5CEA0505DFF818
:100E400034C15FEA92084CF82850D1F804C05FEA38
:100E5000CC2C0AD5DFF830C1DCF800C054EA0C0C09
:100E6000DFF82481C8F800C009E0DFF81CC1DCF815
:100E700000C03CEA040CDFF81081C8F800C0D1F8CB
:100E800004C05FEA8C2C0AD5DFF800C1DCF800C092
:100E900054EA0C0CDFF8F480C8F800C009E0DFF871
:100EA000ECC0DCF800C03CEA040CDFF8E080C8F8D5
:100EB00000C0D1F804C05FEA8C3C0AD5DFF8D0C08E
:100EC000DCF800C054EA0C0CDFF8C480C8F800C09D
:100ED00009E0DFF8BCC0DCF800C03CEA040CDFF835
:100EE000B080C8F800C0D1F804C05FEACC3C0AD595
:100EF000DFF8A0C0DCF800C054EA0C0CDFF89480E6
:100F0000C8F800C009E0DFF88CC0DCF800C03CEA9B
:100F1000040CDFF88080C8F800C0521CAAE6BDE8C7
:100F2000F183D2B2002A02D089B2016102E089B213
:100F30000B040361704710B5040017480068A4B2A1
:100F4000204206D0A4B214480460200080B200F011
:100F50006EFA10BD00000000000011100000121019
:100F6000000021100000221000003110000032109B
:100F7000181002400800014000080140000C014028
:100F80000010014000140140080401400C0401401D
:100F90000404014000040140140401400100002247
:100FA0001000C0B2102808DADFF86822C0B252F888
:100FB0002020914201D0401CF3E7C0B270472DE9D8
:100FC000F04104000D0016001F00DDF81880280015
:100FD000FFF7E4FFB8F1010F04D1DFF83C12C0B213
:100FE00041F82070BDE8F0812DE9F84304000D00C0
:100FF00016004FF4806000FB04F010F1006700F071
:1010000098FA3420DFF81412086000208146B9F104
:10101000000F22D14FF4806000FB097000F022FB2A
:101020004CF2503000F0ABFA8046DFF8F401006873
:1010300030F00200DFF8E8110860DFF8E401006832
:1010400040084000DFF8D8110860B8F1000F01D067
:1010500000201CE019F10109D9E700208146B145C3
:1010600012D25FEA990055F82020002319EB0701FE
:10107000022000F0FFF98046B8F1000F01D00020F7
:1010800005E019F10409EAE700F066FA0120BDE87D
:10109000F28370B44FF4806404FB00F414F1006434
:1010A000250000263300934205D22E680E601B1DDA
:1010B0002D1D091DF7E770BC7047F8B504000F003F
:1010C00015001E00002D3CD0012D02D1022005008C
:1010D0007F08781E5349E4B251F82410486010206C
:1010E0005049E4B251F824108860681E4D49E4B2BA
:1010F00051F82410C86080204A49E4B251F8241005
:10110000886100204749E4B251F82410086145483D
:10111000E4B250F8240000F0BFFA002801D000F03B
:101120006BFF4148E4B240F824603E48E4B250F816
:10113000240000F0E8FA3B48E4B250F8240000F044
:10114000E2FAF1BD2DE9F04705000E0017009846C0
:10115000089CDDF82890DDF82CA0EDB2022095FB6C
:10116000F0F0324951F820004660EDB2022095FBC4
:10117000F0F02E4951F82000BFB28760EDB2022096
:1011800095FBF0F0294951F820001FFA88F8C0F8C3
:101190000C80EDB2022095FBF0F0244951F82000BC
:1011A000A4B20461EDB2022095FBF0F01F4951F8A2
:1011B00020000C214161EDB2022095FBF0F01B49AB
:1011C00051F8200000218161EDB2022095FBF0F082
:1011D000164951F820000021C161EDB2022095FBB3
:1011E000F0F0124951F8200000F008FF002801D06B
:1011F00000F002FFEDB2022095FBF0F00C4941F83F
:101200002090EDB2022095FBF0F00A4941F820A0B1
:10121000BDE8F087A8430008840D00200C200240A0
:1012200010200240B0040020980E0020C8040020C6
:10123000C40E0020D00E0020704750F8041B61B18E
:1012400050F8042BD30744BFA9F101039A180023D7
:1012500042F8043B091FFAD1EFE7704700B585B0AB
:10126000002202211248FFF75CFE12480390124848
:101270000290012001901148808DC0F3811080B24E
:1012800000900E48808DC0F301139BB20B4890F87C
:101290002C0010F00F020948418D0220FFF752FF89
:1012A0004FF480720649074800F0E5FE05B000BD26
:1012B000000801408706000861080008E8050020D2
:1012C000E8040020E40900200020094908800948BA
:1012D0000949086000200949487000200849088031
:1012E000002008490870002007490880704700BFA7
:1012F000F80E00202C410008F00E0020DC0E00202B
:10130000FA0E0020020F0020FC0E0020FEE7FEE790
:10131000FEE7FEE7FEE770477047704780B500F0D4
:10132000BAFF01BD80B5484800F0FCFF01BD80B5A3
:10133000464800680069C00710D544480068C06886
:10134000C0070BD57FF0010040490968086140489B
:101350004068002802D03E484068804701BD80B503
:101360003C4800680069C00710D53A480068C0686A
:10137000C0070BD57FF00100364909680861344881
:101380008068002802D032488068804701BD80B55F
:1013900031480068006880060CD52F480068C06896
:1013A000800607D57FF020002B49096808602B488C
:1013B00040688047284800680068000621D5264814
:1013C0000068C06800061CD57FF0800022490968CB
:1013D0000860234840688047002812D121480068EF
:1013E00000684006FAD51C480068C06830F08000EC
:1013F00019490968C8601C48006830F480401A49DF
:101400000860184800680068000704D57FF00800ED
:1014100014490968086001BD80B54FF48050FFF79A
:101420008AFD01BD80B5114801F0AEF801BD38B5A7
:101430000400A4B22000FFF7B1FD05000C48EDB296
:1014400050F82500804731BD400D0020BC0A002027
:10145000980E0020040B0020E4090020D00E00208C
:10146000C40E00209C090020EC0E0020B00E0020CD
:10147000840D00202DE9F04782460E0014001D0067
:1014800001275FF000085FF00009DFF8BC01007E73
:10149000012801D102204AE00120DFF8AC110876D2
:1014A0004CF2503000F06BF80700FFB2002F38D13B
:1014B000BAF1010F02D10120814607E0BAF1020F13
:1014C00002D10220814601E00420814600208046AE
:1014D0005FFA88F85FFA89F9C84522D2200029000E
:1014E0005FFA88F85FEA081201F0C2F8010089B2D9
:1014F0005FFA88F816EB480000F036F84CF25030EE
:1015000000F03DF80700DFF84401006840084000A3
:10151000DFF838110860FFB2002F02D118F101087E
:10152000D6E70020DFF8201108763800C0B2BDE809
:10153000F08700204549096809060BD54549464A08
:1015400011604649444A116040490968090601D5BD
:1015500001210800C0B270473C48006850F080008C
:101560003A490860002070470022374BDA61374A59
:10157000126852F00102354B1A600180704738B58D
:10158000040000F090FE050031480068C0070BD54C
:1015900014F1010FF8D0002C04D000F084FE401BA1
:1015A0008442F1D2032017E029480068800602D562
:1015B00020202749086026480068C00607D428482C
:1015C0000068C00703D422480068400703D500F034
:1015D00004F8012000E0002032BD00201C49096809
:1015E000C90607D51849C96951F00201164AD161E7
:1015F00050F0100016490968490707D51249C96912
:1016000051F00101104AD16150F0040014490968F9
:10161000C9070BD50C49C96951F004010A4AD161C7
:101620000F490968490849000D4A116040F201114B
:10163000884206D10A49096849084900084A1160E8
:1016400001E0034908607047780E00201020024036
:101650000C2002402301674504200240AB89EFCDF6
:101660001C2002400021094AD1610949096851F052
:101670000201074A1160074908600549096851F0ED
:101680004001034A1160704700000000780E0020FE
:10169000102002401420024010B50400002C01D19B
:1016A00001202FE094F83D00002805D1002084F8A7
:1016B0003C00200001F07BF9022084F83D00211D50
:1016C000206800F0E2F8012084F84600012084F848
:1016D0003E00012084F83F00012084F840000120F2
:1016E00084F84100012084F84200012084F843007E
:1016F000012084F84400012084F84500012084F88A
:101700003D00002010BD010091F83D00012801D0EE
:10171000012035E0022081F83D000868C06850F0E3
:1017200001000B68D8600868DFF85830984212D082
:101730000868B0F1804F0ED00868DFF84C3098424E
:1017400009D00868DFF84430984204D00868DFF810
:10175000403098420DD10868806810F00700020000
:10176000062A0CD00868006850F001000B68186069
:1017700005E00868006850F001000B681860002060
:1017800070470000002C01400004004000080040A9
:1017900000400140F8B504000D00002694F83C001C
:1017A000012801D102206FE0012084F83C000220D2
:1017B00084F83D0020688068070037F0770737F429
:1017C0007F4720688760286800284ED010284CD0BA
:1017D00020284AD0302848D040283CD0502826D055
:1017E00060282ED0702807D0B0F5805F03D0B0F508
:1017F000005F0FD03EE03FE0EB686A68A9682068B0
:1018000000F0D0F820688068070057F0770720685C
:10181000876031E0EB686A68A968206800F0C2F868
:101820002068806850F480402168886024E0EA687D
:101830006968206800F084F85021206800F0A9F859
:101840001AE0EA686968206800F08EF86021206874
:1018500000F09FF810E0EA686968206800F070F80E
:101860004021206800F095F806E02968206800F023
:1018700090F801E001200600012084F83D000020DE
:1018800084F83C003000C0B2F2BD03681A00DFF8F3
:10189000983098420AD0B0F1804F07D0DFF88C30F2
:1018A000984203D0DFF88830984203D132F07002BA
:1018B0004B681A43DFF87030984216D0B0F1804F71
:1018C00013D0DFF8683098420FD0DFF864309842C8
:1018D0000BD0DFF86030984207D0DFF85C309842D8
:1018E00003D0DFF85830984203D132F44072CB680D
:1018F0001A4332F080024B691A4302608B68C3625C
:101900000B688362084B984208D00A4B984205D076
:10191000094B984202D0094B984201D10B690363ED
:101920000123436170470000002C01400004004087
:1019300000080040004001400044014000480140D0
:1019400030B4056A2C00056A6D086D000562856972
:101950002B0033F0F00353EA021334F00A040C4373
:101960008361046230BC704730B4056A2C00056A9C
:1019700035F01005056285692B0033F4704353EA96
:10198000023334F0A00454EA01148361046230BCD1
:10199000704783681A0032F0700251F007031A434F
:1019A0008260704730B485682C0034F47F4452EA7A
:1019B000010555EA03252C43846030BC70471C5058
:1019C00080B5DFF89C05DFF89C15086000F038FC56
:1019D00000F065F800F071FA00F058FA00F0A7F88E
:1019E00000F0E2F800F011F900F053F900F080F98E
:1019F00000F0ADF900F028FA00F036F900F0E6F951
:101A0000DFF86405DFF86415302201F065F8DFF8CF
:101A10006005DFF86015442201F05EF8DFF8580534
:101A2000DFF85815542201F057F8DFF85405DFF8B5
:101A30005415542201F050F8DFF84C05DFF84C152E
:101A4000142201F049F8DFF84805DFF8481558225C
:101A500001F042F8DFF84005DFF84015582201F0A8
:101A60003BF8DFF83C05DFF83C15482201F034F87C
:101A7000DFF83405DFF83415482201F02DF8DFF8DF
:101A80003005DFF83015482201F026F801F050F853
:101A900001F088F8FFF782F801F08AF8FEE700B558
:101AA00093B008A8282101F089F803A8142101F0B7
:101AB00085F800A80021002200230EC00C380A205F
:101AC000089001200C9010200D9001200E90022013
:101AD0000F90002010905FF48010119008A801F082
:101AE00071F8002801D000F087FA0F20039002203F
:101AF000049000200590002006900020079000210F
:101B000003A801F09FFA002801D000F075FA032025
:101B100000904FF4007001900020029000A801F0A6
:101B200097FB002801D000F067FA13B000BDE0B5C4
:101B300000A80021002200230EC00C38DFF8780432
:101B4000DFF8281408600020DFF8201488600120E6
:101B5000DFF8181408730020DFF8101408755FF41C
:101B60006020DFF80814C8610020DFF80014486026
:101B70000120DFF8F8130861DFF8F00301F032FC10
:101B8000002801D000F038FA0820009001200190D0
:101B90000020029000A9DFF8D40301F0C7FC002860
:101BA00001D000F029FA07BD80B5DFF81004DFF896
:101BB000CC130860DFF80804DFF8C0134860002089
:101BC000DFF8B81388600020DFF8B013C8604FF466
:101BD0008040DFF8A81308610020DFF8A0134861F7
:101BE0000020DFF8981388610020DFF89013C861A7
:101BF0000020DFF888130862DFF8800301F070FD31
:101C0000002801D000F0F8F901BD80B5DFF8B40379
:101C1000DFF870130860DFF8A803DFF86813486086
:101C20000020DFF8601388600020DFF85813C860D8
:101C30004FF48040DFF84C1308610020DFF84413B4
:101C400048610020DFF83C1388610020DFF834137E
:101C5000C8610020CB490862CA4801F041FD002854
:101C600001D000F0C9F901BD80B5DFF85C03C749B8
:101C700008605FF0FF30C54948604FF48070C34989
:101C80008860C24800F016FC002801D000F0B4F9CA
:101C900001BD80B5CD48BF4908604FF48270BD4991
:101CA00048600020BB4988600020BA49C860022013
:101CB000B84908610020B74948614FF40070B54940
:101CC00088611820B349C8610020B2490862002029
:101CD000B04948620020AF4988620A20AD49C86215
:101CE000AC4801F0F7FD002801D000F085F901BDF6
:101CF00080B5B748A94908604FF48270A749486089
:101D00000020A64988600020A449C8600220A34999
:101D100008610020A14948614FF400709F49886123
:101D200018209E49C86100209C49086200209B49F8
:101D300048620020994988620A209849C8629748F9
:101D400001F0C8FD002801D000F056F901BD00B532
:101D500087B002A8102100F031FF9E48D0E900238F
:101D6000CDE900235FF080408E49086045F6BF5002
:101D70008C49486000208B49886001208949C860EF
:101D80000020884908618020864988618548FFF7DE
:101D900083FC002801D000F02FF94FF4805002900E
:101DA00002A98048FFF7F6FC002801D000F024F9D2
:101DB000002000900020019000A97A4801F0E6FD83
:101DC000002801D000F018F907B000BD00B587B0B9
:101DD00002A8102100F0F2FE7F48D0E90023CDE9EF
:101DE00000237E487149086045F6BF506F4948603E
:101DF00010206E49886001206C49C86000206B4942
:101E000008618020694988616848FFF745FC00281F
:101E100001D000F0F1F84FF48050029002A963481D
:101E2000FFF7B8FC002801D000F0E6F80020009091
:101E30000020019000A95D4801F0A8FD002801D014
:101E400000F0DAF807B000BD80B565485949086070
:101E50004FF41650574948600020564988600020CA
:101E60005449C8600020534908610C205149486119
:101E700000205049886100204E49C8614D4800F05B
:101E8000BDF8002801D000F0B7F801BD10B582B050
:101E90005448006850F001005249086051480068F9
:101EA00010F001000090009C002200210B2001F0A6
:101EB00024FE0B2001F034FE13BD70B586B001A8DE
:101EC000102100F07BFE4848006850F02000464991
:101ED00008604548006810F020000090009C4248CF
:101EE000006850F00400404908603F48006810F066
:101EF00004000090009D3C48006850F008003A49FA
:101F000008603948006810F008000090009E002228
:101F100040F602313548FFF704F840F602300190F0
:101F200001200290002003900220049001A92F4874
:101F3000FEF79CFE4FF4805001902D480290012046
:101F4000039001A92B48FEF791FE002200212820D2
:101F500001F0D3FD282001F0E3FD06B070BD0000C4
:101F60000030000808ED00E0C40D0020F40D002052
:101F7000FC0C0020400D0020FC070020A4080020DD
:101F800050080020F8080020640E0020B00E002049
:101F90009C0600204C070020F4060020A407002027
:101FA000BC0A0020240C0020040B00206C0C002034
:101FB000E4090020B40C002000240140005400403B
:101FC000A086010000580040002800400030014079
:101FD00000380040144500081C450008000400407B
:101FE0000044004014100240181002400008014054
:101FF00000002110000C014072B6FEE710B504008D
:10200000002C01D1012035E0A0690028FFD194F80F
:102010004100002805D1002084F84000200000F095
:10202000FAFC242084F841002068C06830F4005095
:102030002168C860200000F040F82068006930F492
:102040009040216808612068406930F02A002168CA
:1020500048612068C06850F400502168C8600020C2
:102060006064202084F84100202084F84200002091
:102070006063002010BD10B4030099629A85DA8570
:1020800000205864222083F842001869002805D0F7
:102090001868C06850F480701C68E0601868406977
:1020A00050F001001C6860611868C06850F02000A2
:1020B0001C68E060002010BC704770B50400206808
:1020C000006930F44050E168084321680861A06865
:1020D0002169084361690843E169084305002068F4
:1020E000C0685549084028432168C8602068406995
:1020F00030F44070A16908432168486120684F4965
:10210000884203D101F061F8060002E001F052F8C4
:102110000600E069B0F5004F46D1192000FB06F03B
:1021200061684900B0FBF1F06421B0FBF1F01921C6
:1021300001FB06F162685200B1FBF2F1192202FBC9
:1021400006F263685B00B2FBF3F26423B2FBF3F2C6
:10215000642303FB1211C90032316422B1FBF2F196
:1021600011F0F801490011EB0010192101FB06F1F3
:1021700062685200B1FBF2F1192202FB06F26368B9
:102180005B00B2FBF3F26423B2FBF3F2642303FBC4
:102190001211C90032316422B1FBF2F111F00701D2
:1021A00008182168886044E0192000FB06F0616887
:1021B0008900B0FBF1F06421B0FBF1F0192101FBC3
:1021C00006F162689200B1FBF2F1192202FB06F2FD
:1021D00063689B00B2FBF3F26423B2FBF3F2642367
:1021E00003FB1211090132316422B1FBF2F111F04B
:1021F000F00111EB0010192101FB06F16268920059
:10220000B1FBF2F1192202FB06F263689B00B2FBFC
:10221000F3F26423B2FBF3F2642303FB121109010E
:1022200032316422B1FBF2F111F00F01081821687C
:10223000886070BD00000000F369FFFF00380140B6
:1022400080B5032001F053FC0F2000F004F800F0EB
:102250001FFA002002BD10B504004FF47A70134934
:102260000978B0FBF1F012490968B1FBF0F001F018
:102270005EFC002801D001200CE0102C09D20022C5
:1022800021005FF0FF3001F038FC0A4804600020B4
:1022900000E0012010BD08480068044909780818CA
:1022A000054908607047044800687047E40400204E
:1022B000E0040020DC040020F40E002001000022D5
:1022C000002901D101202CE00868DFF8C43118187A
:1022D0001423B0FBF3F080000864DFF8B801C86392
:1022E000022081F821000868006802006FF30D12D7
:1022F00048688B681843CB6818430B6918434B69CF
:1023000018438B691843CB6918430243086802607D
:1023100000208863012081F82100002081F820003E
:102320000020704770B50400E06B056820680668FF
:102330000420216C884005423ED070073CD52068BF
:102340000068800605D42068006830F00400216829
:10235000086020685049884201D1042023E02068A9
:102360004E49884201D140201DE020684C498842F6
:1023700002D14FF4806016E020684A49884202D1B9
:102380004FF480400FE020684749884202D15FF453
:10239000802008E020684549884202D15FF480002F
:1023A00001E05FF0806042490860E06A00286DD07B
:1023B0002000E16A884769E00220216C88400542DC
:1023C00044D0B00742D520680068800608D4206851
:1023D000006830F00A0021680860012084F82100BC
:1023E00020682D49884201D1022023E020682B4932
:1023F000884201D120201DE020682949884202D16D
:102400004FF4007016E020682649884202D14FF44C
:1024100000500FE020682449884202D15FF4003068
:1024200008E020682149884202D15FF4001001E0F1
:102430005FF000701E490860002084F82000A06A48
:10244000002823D02000A16A88471FE00820216CC3
:10245000884005421AD0300718D52068006830F04F
:102460000E00216808600120216C8840E16B486003
:102470000120A063012084F82100002084F82000BE
:10248000206B002802D02000216B884770BD00001F
:10249000F8FFFDBF00000240080002401C0002409F
:1024A0003000024044000240580002406C000240EC
:1024B0000400024038B504000025002C01D10120A1
:1024C00061E0607C002804D100202074200000F02E
:1024D000E2F902206074200000F077F8002803D0B1
:1024E0000420607401204EE0200000F08CF80028E9
:1024F00003D004206074012045E020684068C008D3
:10250000C00021684860A068002807D0DFF8AC0050
:10251000006840084000DFF8A4100860DFF8A00061
:10252000006830F46070A1680843DFF89410086018
:10253000606810F1010F02D0606805000AE0012018
:1025400000F001FF0500002D03D10420607401207C
:1025500019E06D1EC5F3034021688860A8B22168A8
:10256000C860200000F069F8002803D004206074DF
:10257000012008E00020E073012060730120A073B7
:1025800001206074002032BD10B50400206800688E
:1025900080070CD520684068800708D5200000F02F
:1025A00013F82068406830F00200216848605FF44A
:1025B0000030044908600120607410BD306C004098
:1025C0002C6C004014040140704738B5040000250D
:1025D000002C01D1012015E02068406830F008008F
:1025E00021684860FFF75FFE05002068406800072B
:1025F00007D4FFF758FE401BB0F57A7FF5D90320CA
:1026000000E0002032BD38B504000025FFF74BFE86
:10261000050020684068800607D4FFF744FE401B91
:10262000B0F57A7FF5D9032006E02068406850F0C5
:10263000100021684860002032BD38B50400002534
:102640002068406830F0100021684860FFF72BFEDA
:10265000050020684068800607D4FFF724FE401B71
:10266000B0F57A7FF5D9032000E0002032BD0000EC
:10267000D2B2203A22BF21FA02F000217047203264
:10268000D141D04048409140D1404840704700007F
:1026900081B0DFF80404006850F00100DFF8F8139F
:1026A0000860DFF8F403006810F001000090009863
:1026B000DFF8E813096851F08051DFF8E02311607A
:1026C000DFF8D813096811F0805100910099DFF804
:1026D000D0331B681A0032F0E06252F00072DFF86B
:1026E000C0331A6001B0704770B586B0040001A80D
:1026F000102100F063FA2068DFF8A813884257D150
:10270000DFF89403006850F40070DFF88C13086061
:10271000DFF88403006810F400700090009DDFF87B
:102720007803006850F00800DFF86C130860DFF8E9
:102730006803006810F008000090009E03200190DC
:102740000320029001A9DFF86003FEF78FFADFF89B
:102750005C03DFF85C1308600020DFF85413486066
:102760000020DFF84C1388608020DFF84413C86035
:102770004FF48070DFF8381308614FF48060DFF8A1
:10278000301348610020DFF8281388610020DFF84B
:102790002013C861DFF81803FFF790FD002801D06F
:1027A000FFF72AFCDFF808032062DFF80403446225
:1027B00006B070BD30B585B0040001A8102100F04E
:1027C000FDF92068DFF8EC12884235D1DFF8C80245
:1027D000006850F00800DFF8C0120860DFF8B802A7
:1027E000006810F008000090009D4FF440700190C8
:1027F000122002900320049001A9DFF8AC02FEF73A
:1028000035FADFF89C120968080050F0E06050F0DB
:102810000200DFF88C120860DFF88002006850F4D4
:102820000010DFF878120860DFF87002006810F41A
:102830000010009000982CE02068DFF87C1288429D
:1028400027D1DFF85402006850F00800DFF8481282
:102850000860DFF84402006810F008000090009D56
:102860004FF440600190122002900320049001A9CF
:10287000DFF83402FEF7FAF9DFF82002006850F4BE
:102880008000864908608548006810F48000009048
:10289000009805B030BD38B50400206887498842EB
:1028A00018D101F05BF97D48006850F000607B4969
:1028B00008607A48006810F000600090009D0120D8
:1028C0007F49086000220021292001F016F9292003
:1028D00001F026F931BD70B586B0040001A81021C1
:1028E00000F06CF92068774988422CD16A4800686A
:1028F00050F48050684908606748006810F48050C0
:102900000090009D6448006850F00400624908602F
:102910006148006810F004000090009EA020019023
:10292000022002900320049001A96748FEF79EF957
:1029300040200190002002900020039001A96248ED
:10294000FEF794F931E02068604988422DD1534860
:10295000006850F48040514908605048006810F405
:1029600080400090009D4C48006850F008004A49A3
:1029700008604948006810F008000090009E4FF47D
:1029800020400190022002900320049001A94648B3
:10299000FEF76CF94FF48040019000200290002077
:1029A000039001A94048FEF761F906B070BD38B543
:1029B00004002068B0F1804F14D13848006850F00E
:1029C0000100364908603548006810F001000090A9
:1029D000009D002200211C2001F08FF81C2001F036
:1029E0009FF817E020683A49884213D12B480068C5
:1029F00050F00200294908602848006810F00200E1
:102A00000090009D002200211D2001F076F81D207D
:102A100001F086F831BD70B586B0040001A8102120
:102A200000F0CCF820682B49884233D11B4800685D
:102A300050F40030194908601848006810F400305C
:102A40000090009D1448006850F00400124908608E
:102A50001148006810F004000090009E04200190CE
:102A6000022002900320049001A91748FEF7FEF807
:102A700008200190002002900020039001A9124834
:102A8000FEF7F4F800220021262001F036F8262077
:102A900001F046F806B070BD181002401C1002404C
:102AA0000400014000240140000C014008000240E5
:102AB000400D002000540040005800400028004015
:102AC0003C04424200300140000801400038004010
:102AD0000004004000440040103A07D330B4B1E88D
:102AE0003810103AA0E83810F9D230BC530724BF90
:102AF000B1E80810A0E8081044BF51F8043B40F8C2
:102B0000043BD20724BF31F8022B20F8022B44BF2C
:102B10000B7803707047083A07D3B1E80810083AF9
:102B200040F8043B40F804CBF7D25307E4E7000039
:102B300080B501F019F801F0AAF800F03BFB154B45
:102B400001224FF47A71B0FBF1F10220FEF7B5FAE1
:102B500001201149087000200F49486001200E49EA
:102B6000087200200C49C86001200B49087400203D
:102B70000949486101200849087600200649C861D2
:102B8000012000900023054A4FF480510448FEF7CD
:102B900016FA01BD4B3E0008440E00200000211033
:102BA000000C014080B501F0F5F801F003F901BD1A
:102BB00080B501F01BF901F01AF901BD002201F006
:102BC00017B90000F8B50400002C01D1012038E24B
:102BD0002078C00740F18480DFF83006006810F0EC
:102BE0000C0004280BD0DFF82406006810F00C005D
:102BF00008280ED1DFF814060068C00309D5DFF8F5
:102C00000806006880036BD56068002868D1012041
:102C100017E26068B0F5803F08D1DFF8EC05006886
:102C200050F48030DFF8E015086038E06068002874
:102C300010D1DFF8D405006830F48030DFF8C81513
:102C40000860DFF8C405006830F48020DFF8B815AC
:102C5000086024E06068B0F5A02F10D1DFF8A80567
:102C6000006850F48020DFF8A0150860DFF89805B0
:102C7000006850F48030DFF8901508600FE0DFF84E
:102C80008805006830F48030DFF87C150860DFF8D4
:102C90007805006830F48020DFF86C150860606803
:102CA00000280ED0FFF7FFFA0500DFF85C0500688A
:102CB000800315D4FFF7F7FA401B6528F5D30320EE
:102CC000BFE1FFF7F0FA0500DFF83C05006880037C
:102CD00006D5FFF7E8FA401B6528F5D30320B0E1DD
:102CE000207880075CD5DFF82405006810F00C0F11
:102CF0000BD0DFF81805006810F00C0008281AD176
:102D0000DFF808050068C00315D4DFF8FC0400688C
:102D1000800704D52069012801D0012091E1DFF866
:102D2000E804006830F0F800616950EAC100DFF89B
:102D3000D814086034E0206900281ED00120DFF894
:102D4000E4140860FFF7AFFA0500DFF8BC04006880
:102D5000800706D4FFF7A7FA401B0328F5D303200A
:102D60006FE1DFF8A404006830F0F800616950EA10
:102D7000C100DFF89414086012E00020DFF8A4140A
:102D80000860FFF790FA0500DFF87C040068800710
:102D900006D5FFF788FA401B0328F5D3032050E13E
:102DA000207800072CD5A069002816D00120DFF874
:102DB00078140860FFF777FA0500DFF8640400680C
:102DC000800706D4FFF76FFA401B0328F5D30320D2
:102DD00037E1012000F004FA12E00020DFF8481487
:102DE0000860FFF760FA0500DFF834040068800728
:102DF00006D5FFF758FA401B0328F5D3032020E13E
:102E00002078400740F1A7800027DFF82004006801
:102E1000C00010D4DFF81404006850F08050DFF8D0
:102E20000C140860DFF80404006810F08050009073
:102E3000009801210F00DFF8F8030068C00516D4E0
:102E4000DFF8EC03006850F48070DFF8E4130860EA
:102E5000FFF729FA0500DFF8D8030068C00506D49B
:102E6000FFF721FA401B6528F5D30320E9E0E0686D
:102E7000012808D1DFF8BC03006850F00100DFF83A
:102E8000B413086037E0E068002810D1DFF8A4032D
:102E9000006840084000DFF89C130860DFF89403E6
:102EA000006830F00400DFF88C13086023E0E0686D
:102EB000052810D1DFF87C03006850F00400DFF82B
:102EC00074130860DFF86C03006850F00100DFF84D
:102ED000641308600FE0DFF85C03006840084000FE
:102EE000DFF850130860DFF84C03006830F004008E
:102EF000DFF840130860E068002810D0FFF7D3F92E
:102F00000500DFF830030068800719D4FFF7CBF91C
:102F1000401B41F289318842F3D3032091E0FFF74F
:102F2000C2F90500DFF80C030068800708D5FFF739
:102F3000BAF9401B41F289318842F3D3032080E083
:102F4000FFB2012F07D1DFF8E402006830F08050B3
:102F5000DFF8D8120860E069002871D0DFF8AC0211
:102F6000006810F00C00082855D0E06902283FD115
:102F70000020DFF8C4120860FFF795F90500DFF8BC
:102F800088020068800106D5FFF78DF9401B0328F1
:102F9000F5D3032055E0206AB0F5803F09D1DFF872
:102FA0007C02006800090001A1680843DFF86C1288
:102FB0000860DFF85802006830F47410216A084392
:102FC000616A0843DFF8441208600120DFF86812E4
:102FD0000860FFF768F90500DFF82C02006880013F
:102FE0002ED4FFF760F9401B0328F5D3032028E017
:102FF0000020DFF844120860FFF755F90500DFF8FC
:103000000802006880011BD5FFF74DF9401B03281B
:10301000F5D3032015E0E069012801D1012010E07B
:10302000DFF8E8010068060016F48030216A884263
:1030300004D116F47010616A884201D0012000E0CA
:103040000020F2BD70B504000D00002C01D101205C
:103050007AE02078800719D52078400705D56B489D
:10306000006850F4E060694908602078000705D5E1
:103070006648006850F4605064490860634800681E
:1030800030F0F000A1680843604908602078C0076C
:1030900033D56068012805D15B480068800310D4EF
:1030A000012051E06068022805D15748006880017E
:1030B00007D4012048E054480068800701D401206B
:1030C00042E05248006880088000616808434F4928
:1030D0000860FFF7E8F806004C48006810F00C00A4
:1030E0006168B0EB810F08D0FFF7DDF8801B41F27B
:1030F00089318842F0D3032026E02078400707D5A5
:103100004248006830F4E060E16808433F490860E5
:103110002078000708D53D48006830F460502169E8
:1031200050EAC1003949086000F00FF84349374AB6
:103130001268C2F30312515CC84036490860364831
:103140000068FFF788F8002070BD70B400210022ED
:103150000023002400202D4D2D68290011F00C05BE
:10316000042D02D0082D03D01DE0294D28001CE0BD
:10317000334DC1F38346755D2C00CD030DD5314D24
:10318000264E366816F00F06755D2A00204D05FBA9
:1031900004F5B5FBF2F52B0003E02B4D05FB04F520
:1031A0002B00180001E01A4D280070BC7047194828
:1031B0000068704780B5FFF7FAFF2449134A126888
:1031C000C2F30222515CC84002BD80B5FFF7EFFF99
:1031D0001E490E4A1268C2F3C222515CC84002BDA9
:1031E00081B00C490968C9084FF47A72B1FBF2F159
:1031F00001FB00F1009100BF00994A1E00920029D6
:10320000F9D101B0704700000010024004100240E4
:1032100000127A00E0040020DC0400202C100240A0
:103220002410024000004242800442421C1002402E
:10323000007000402010024060004242D04400086C
:10324000B0440008C044000800093D002C450008B7
:10325000F8B50400002500262078C00766D50027B1
:1032600059480068C0000DD45748006850F080509D
:10327000554908605448006810F08050009000984C
:1032800001210F0051480068C00513D44F48006861
:1032900050F480704D490860FFF705F805004B4871
:1032A0000068C00506D4FEF7FEFF401B6528F6D374
:1032B000032047E04648006810F440700600002EE6
:1032C00023D0606810F4407086421ED040480068E9
:1032D00030F44070060001203E49086000203D495E
:1032E00008603B480660F0070FD5FEF7DCFF0500DD
:1032F00037480068800708D4FEF7D5FF401B41F22D
:1033000089318842F4D303201CE03148006830F44E
:103310004070616808432E490860FFB2012F05D153
:103320002948006830F080502749086020788007DD
:1033300007D52948006830F44040A1680843264971
:1033400008600020F2BD70B50400002500262000B2
:10335000012802D0022827D032E01D48006805006D
:1033600040F202302840B0F5817F03D14FF4004095
:10337000060018E015F44070B0F5007F07D117483B
:103380000068800703D549F6404006000BE015F4BD
:103390004070B0F5407F06D111480068800302D527
:1033A0004FF2244006000BE0FFF70FFF0A490968BF
:1033B000C1F38131491C4900B0FBF1F00600FFE781
:1033C000300070BD000000001C1002400070004082
:1033D00020100240400442420410024024100240E7
:1033E000001002402DE9F0410400002500260027CE
:1033F0005FF00008002C01D1012095E0A0680028B2
:1034000001D0207D0028A06A002807D10020E062BA
:10341000002084F824002000FFF766F9200000F067
:1034200035F90500A06AC00676D4EDB2002D73D13F
:10343000A06A30F4885050F00200A0626068E16930
:103440000843217B50EA41000743A068B0F5807F24
:1034500002D0A068012802D14FF4807000E0002063
:103460000643207D012811D1207B002806D1A069C8
:10347000401E400350F40060064307E0A06A50F08D
:103480002000A062E06A50F00100E062206840681D
:1034900030F4694030432168486020688068DFF874
:1034A000D8110840384321688860A068B0F5807F53
:1034B00002D0A068012802D14FF4807000E0002003
:1034C000B0F5807F03D12069401E0005804620684A
:1034D000C06A30F4700058EA00002168C8622068B1
:1034E0008068DFF898110840B84208D10020E062F7
:1034F000A06A30F0020050F00100A06212E0A06A61
:1035000030F0020050F01000A062E06A50F00100BC
:10351000E0620120050005E0A06A50F01000A06202
:10352000012005002800C0B2BDE8F08178B4020097
:1035300000230020009092F82400012801D10220ED
:1035400097E0012082F824004868072812D210680A
:10355000406B1F244D686D1E05267543AC40A0438B
:103560000C684D686D1E05267543AC4020431468F9
:10357000606327E048680D2812D21068006B1F2492
:103580004D68ED1F05267543AC40A0430C684D689F
:10359000ED1F05267543AC4020431468206311E0FD
:1035A0001068C06A1F244D680D3D05267543AC4068
:1035B000A0430C684D680D3D05267543AC40204383
:1035C0001468E06208680A2812D31068C0680724EB
:1035D0000D680A3D03267543AC40A0438C680D6816
:1035E0000A3D03267543AC4020431468E0600FE0B9
:1035F0001068006907240D6803267543AC40A0439A
:103600008C680D6803267543AC4020431468206124
:103610000868102802D00868112825D11068194CB4
:10362000A0421BD11068806800021DD41068806819
:1036300050F400001468A0600868102814D11048E5
:103640000068114CB0FBF4F00A246043009000982D
:10365000002809D00098401E0090F8E7906A50F0CA
:103660002000906201200300002082F8240018004E
:10367000C0B272BC70470000FDF7E1FFFE0E1FFFF5
:10368000E00400200024014040420F0038B504004F
:10369000002520688068C0071FD520688068400822
:1036A000400021688860FEF7FEFD05002068806804
:1036B000C00712D5FEF7F7FD401B0328F6D320689C
:1036C0008068C007F2D5A06A50F01000A062E06ADE
:1036D00050F00100E062012000E0002032BD000057
:1036E00070B50400002C01D10120E6E094F83D0003
:1036F000002805D1002084F83C002000FFF75AF88C
:10370000242084F83D0020680068400840002168BB
:1037100008602068006850F4004021680860206854
:10372000006830F4004021680860FFF743FD0600A0
:103730006068DFF88811884208D2DFF88401864289
:1037400001D2012000E00020C0B207E0DFF87401E0
:10375000864201D2012000E00020C0B2012801D140
:103760000120AAE0DFF86001B6FBF0F00500206858
:103770004068800980012843216848602068006A09
:103780006168DFF83821914201D2691C08E04FF4EA
:10379000967101FB05F14FF47A72B1FBF2F1491C0D
:1037A000800980010843216808622068C069616857
:1037B000DFF80821914214D2711E62685200B1FBF9
:1037C000F2F1491C0905090D042901D204213EE04A
:1037D000711E62685200B1FBF2F1491C0905090D26
:1037E00035E0A168002909D1711E626803235A439C
:1037F000B1FBF2F1491C0905090D0AE0711E62686E
:1038000019235A43B1FBF2F1491C0905090D51F482
:103810008041090501D1012119E0A168002909D1E0
:10382000711E626803235A43B1FBF2F1491C09057A
:10383000090D0AE0711E626819235A43B1FBF2F1C7
:10384000491C0905090D51F4804151F40041DFF88C
:103850007C20104008432168C8612068006830F06F
:10386000C000E1690843216A0843216808602068B4
:103870008068DFF85C10084021690843E16808436C
:10388000216888602068C068000A0002A169626936
:10389000114308432168C8602068006850F00100A7
:1038A0002168086000202064202084F83D0000206A
:1038B0002063002084F83E00002070BDA186010036
:1038C00080841E0000093D0040420F000030FFFFD1
:1038D000007CFFFF10B50400002C01D1012054E052
:1038E000606A002806D16068B0F5827F06D00020AB
:1038F000E06103E000202061002060610020A06200
:1039000094F85100002805D1002084F850002000D0
:10391000FEF7E1FF022084F851002068006830F0D3
:10392000400021680860606810F48270A16811F49A
:1039300004410843E16811F400610843217C11F05F
:1039400002010843217D11F001010843A16911F42E
:1039500000710843217F11F03801084394F82010CA
:1039600011F080010843A16A11F400510843216855
:103970000860A069000C10F0040021684860002075
:103980006065012084F85100002010BD30B40200B1
:1039900092F83C00012801D1022032E0012082F897
:1039A0003C00022082F83D00106840680400106866
:1039B0008068030034F070040868044310684460B1
:1039C0001068114DA8420FD01068B0F1804F0BD095
:1039D00010680E4DA84207D010680D4DA84203D0C4
:1039E00010680C4DA84205D133F0800348680343AA
:1039F00010688360012082F83D00002082F83C00BE
:103A0000002030BC70470000002C01400004004042
:103A1000000800400040014010F00702474B1B68BF
:103A200019004FF6FF031940454B53EA022319438F
:103A3000424B1960704741480068C0F3022070474C
:103A400040B2002808D4012110F01F0291403D4AE5
:103A500040B2430942F82310704710B440B2002826
:103A600004D40A01384B40B2C25407E00A01374B74
:103A700040B210F00F04E31803F8042C10BC704798
:103A800070B4030013F00704D4F10706052E01D328
:103A9000042001E0D4F10700261D072E01D20025E5
:103AA00000E0E51E012616FA00F0401E0840A8407E
:103AB0000121A940491E1140084370BC704710B550
:103AC0000400601EB0F1807F01D301200EE0601E73
:103AD0001F4908600F215FF0FF30FFF7BEFF002095
:103AE0001C49086007201C490860002010BD10B563
:103AF00004002000FFF790FF10BDF8B504000D0092
:103B000016000027FFF797FF070032002900380052
:103B1000FFF7B6FF0100200040B2FFF79EFFF1BDA6
:103B200010B50400200040B2FFF78AFF10BD10B5A9
:103B300004002000FFF7C3FF10BD00000CED00E003
:103B40000000FA0500E100E000E400E018ED00E00C
:103B500014E000E018E000E010E000E0012001497E
:103B60000860704720000E427047000000231A00D2
:103B700092B2535C002B05D092B2535C92B21354B4
:103B8000521CF5E77047734900221000082803D241
:103B900000224254401CF9E741F64D726D4B1A6009
:103BA000704738B56C4C00200500B42D03D20020BE
:103BB00028556D1CF9E76848008850F002006649F6
:103BC00008806548008850F0010063490880624819
:103BD000008850F00800604908805F48008850F075
:103BE00004005D4908805C48008850F010005A4984
:103BF000088000205849888000205749C88000204C
:103C00005549488000205449088100205249888342
:103C10000120514908855048808D4FF6F0710840C9
:103C20004D4988854C48808D4FF6CF7108404A49F0
:103C300088854948808D4FF63F7108404649888500
:103C40004548808D50F48070434988854FF4165064
:103C50004149488541494248FFF788FF4149424868
:103C6000FFF784FF41494248FFF780FF414942483E
:103C7000FFF77CFF41494248FFF778FF3B49414845
:103C8000FFF774FF37494048FFF770FF31BD70B54B
:103C9000304C00203D49086008222E493F20FDF7A6
:103CA000F8F90020060000200500B6B2042E05D267
:103CB000B6B234F816004519761CF6E7ADB2002D01
:103CC00009D1B6B214EB460030F8020C00280DD131
:103CD000208800280AD1FFF756FF08211D4800F070
:103CE000A1F808221B493F20FDF77EF91A4804007D
:103CF000002026490860B42217493E20FDF7C9F983
:103D00000020060000200500B6B25A2E05D2B6B239
:103D100034F816004519761CF6E7ADB2002D09D12E
:103D2000B6B214EB460030F8020C00280DD1208802
:103D300000280AD1FFF735FFB421074800F072F8D8
:103D4000B42205493E20FDF74FF911490A48FFF713
:103D50000DFF70BDE40E0020E8050020804400083F
:103D60004C0600209044000870060020A044000883
:103D700038060020F0440008160600206C440008B5
:103D8000220600207C0600208A060020240E002047
:103D9000FC44000880B5FFF70DFA054B01224FF4F3
:103DA0007A71B0FBF1F10320FDF787F901BD00BF87
:103DB000270B000800210800C0B20A280CDA0021F5
:103DC000074AC0B242F830100649054AC0B212EBA9
:103DD000C0025160401CEFE70021034A1170704798
:103DE0004C090020C1450008000F002070477047B3
:103DF00000B500BF130096469446103928BFA0E8CE
:103E00000C50FAD85FEA417C28BF0CC048BF40F88C
:103E1000042BC90728BF20F8022B48BF00F8012B4C
:103E200000BD000030B400220400891E49080025AE
:103E30002B008B4204D22588AA18A41C5B1CF8E72F
:103E4000D5436D1C258030BC70470020C0B20428CB
:103E50001ADA0E49C0B211F83010012912D10B49FB
:103E6000C0B211EBC001496811F1010F0AD0074936
:103E7000C0B211EBC0014968491C044AC0B212EB40
:103E8000C0025160401CE1E770470000440E002072
:103E9000444400000000000000000000000000009A
:103EA0000000000000000000000000000000000012
:103EB0000000000000000000000000000000000002
:103EC00000000000000000000000000000000000F2
:103ED00000000000000000000000000000000000E2
:10413000000000005F08000800000000010000000F
:10414000000000005F0800080000000002000000FE
:10415000000000005F080008000000000300FFFFEF
:104160007D000205BB030008010000000400000000
:10417000000000005F0800080000000005000000CB
:10418000000000005F080008000000000600FFFFBC
:10419000FFFF000505030008010000000700000004
:1041A000000000005F080008000000000800000098
:1041B000000000005F080008000000000900000087
:1041C000000000005F080008000000000A00000076
:1041D000000000005F080008000000000B00000065
:1041E000000000005F080008000000000C00000054
:1041F000000000005F080008000000000D00000043
:10420000000000005F080008000000000E00000031
:10421000000000005F080008000000000F00000020
:10422000000000005F080008000000001000FFFF11
:104230007B000106210100080100000011000000C0
:10424000000000005F0800080000000012000000ED
:10425000000000005F0800080000000013000000DC
:10426000000000005F0800080000000014000000CB
:10427000000000005F0800080000000015000000BA
:10428000000000005F0800080000000016000000A9
:10429000000000005F080008000000001700000098
:1042A000000000005F080008000000001800000087
:1042B000000000005F08000800000000816807E0BF
:1042C00002681168536889185B18C360083202607D
:1042D000C2689142F4D04A1C8260087870472DE988
:1042E000FF4D00F10801009100270268520801EB20
:1042F000C2010191B8460021029103910168490869
:1043000000EBC101406800F0010501F1080440081C
:1043100004EBC00631E000A8FFF7D0FF4FFA80FAA7
:104320000AE0009801680818009902904968081886
:104330000390009808300090029803998842F0D0CA
:10434000401C029010F801BD47450CD1B44208BF93
:1043500000F01DF8276805B14F44606800EB0708BE
:1043600008344745F2D007F801BBBAF1000F0AD56F
:104370001AF1010AE8D14745CDD1B442CBD130463C
:1043800004B0BDE8F08DBAF1010AD5D5F3E70120FC
:1043900000F000B880B5C046C046024A110018209F
:1043A000ABBEFBE726000200010000000200000097
:1043B00004000000080000001000000020000000C1
:1043C000400000008000000000010000000200002A
:1043D00000040000000800000010000000200000A1
:1043E000004000000080000010B5074979441831F2
:1043F000064C7C44163404E00A68081D51188847AE
:104400000146A142F8D110BD0800000030000000B4
:104410002BCEFFFF1C0A0000E80400200000000073
:10442000BFFEFFFF02000000020000009A01000032
:10443000AC01000000000020E504000000F00BF8D3
:10444000002801D0FFF7D0FF0020C046C046FDF78E
:10445000B7FA00F002F80120704700F001B8000040
:1044600007463846FFF796FFFBE700004550483106
:10447000304C3130303120323230373031000000B2
:104480004550482D5472616E736D69747465720085
:104490005442312D32323031303334340000000098
:1044A00032303232303232342D3030303031000060
:1044B00002030405060708090A0B0C0D0E0F101065
:1044C0000102030405060708090A0B0C0D0E0F1064
:1044D00000000000000000000102030406070809B4
:1044E0000148804701480047C545000809450008C4
:1044F00056657220312E302E313000005645522044
:10450000312E302E31300000C046C046C046C04675
:10451000FFF794FF00000000000000000000000012
:104520000000000046494E452D54454B0000000058
:1045300001020304FFF7FEBFFFF7FEBFFFF7FEBF58
:10454000FFF7FEBFFFF7FEBFFFF7FEBFFFF7FEBF9F
:10455000FFF7FEBFFFF7FEBFFFF7FEBFFFF7FEBF8F
:10456000FFF7FEBFFFF7FEBFFFF7FEBFFFF7FEBF7F
:10457000FFF7FEBFFFF7FEBFFFF7FEBFFFF7FEBF6F
:10458000FFF7FEBFFFF7FEBFFFF7FEBFFFF7FEBF5F
:10459000FFF7FEBFFFF7FEBFFFF7FEBFFFF7FEBF4F
:1045A000FFF7FEBFFFF7FEBFFFF7FEBFFFF7FEBF3F
:1045B000FFF7FEBFFFF7FEBFFFF7FEBFFFF7FEBF2F
:1045C0007047000070477E4C0600204E06002050C9
:1045D00006002052060020540600205606002058EF
:1045E0000600205A0600205C0600205E06002060BF
:1045F000060020620600206406002066060020688F
:104600000600206A0600206C0600206E0600203896
:104610000600203A0600203C0600203E060020400E
:1046200006002042060020440600204606002048DE
:104630000600204A06002016060020180600201A50
:104640000600201C06007E201E06002020060020FA
:10465000220600202406002026060020280600202E
:104660002A0600202C0600202E06002030060020FE
:104670003206002034060020360600207006002096
:1046800072060020740600207606002078060020BE
:104690007A0600207C0600207E060020800600208E
:1046A000820600208406002086060020880600205E
:1046B0008A0600208C0600208E060020900600202E
:1046C000920600209406110020EC050020EE050063
:1046D00020EA050020F0050020810081008100ED26
:1046E0000003FE0E0020810081008100F1004B24B8
:1046F00045000826450008284500082A450008D43A
:10470000040020D6040020D8040020340E002036F7
:104710000E0020BE190008380E00203A0E0020BE00
:104720001900083C0E00203E0E0020BE1900084073
:104730000E0020420E0020BE190008CC0028740A8A
:104740000020BC0A0020040B00204C0B0020940B1E
:104750000020DC0B00209C090020E40900202C0A2A
:1047600000205045044801FD000010FC000324F423
:02477000000146
:0400000508004509A1
:00000001FF
